:100000000C942A000C9466000C9482000C949E00C0
:100010000C9447000C9447000C9447000C94470044
:100020000C9447000C9447000C9447000C94470034
:100030000C9447000C9447000C9447000C94470024
:100040000C9447000C9447000C9447000C94470014
:100050000C94470011241FBECFE5D8E0DEBFCDBF12
:1000600010E0A0E6B0E0E8E7F1E002C005900D92F4
:10007000A036B107D9F710E0A0E6B0E001C01D92AC
:10008000A036B107E1F70E9449000C94BA000C9425
:1000900000008BB7806E8BBF85B78D6085BF85B73D
:1000A0008D7F85BF84B78F7B84BF789481B3806E4A
:1000B00081BB82B38F7182BB8FEF99E6A8E181503B
:1000C0009040A040E1F700C00000F3CF1F920F92D4
:1000D0000FB60F9211248F939F93AF93BF93959A6E
:1000E0008FEF99E6A8E181509040A040E1F700C071
:1000F0000000BF91AF919F918F910F900FBE0F9015
:100100001F9018951F920F920FB60F9211248F9384
:100110009F93AF93BF93969A8FEF99E6A8E1815092
:100120009040A040E1F700C00000BF91AF919F91C7
:100130008F910F900FBE0F901F9018951F920F92E6
:100140000FB60F9211248F939F93AF93BF93979AFB
:100150008FEF99E6A8E181509040A040E1F700C000
:100160000000BF91AF919F918F910F900FBE0F90A4
:080170001F901895F894FFCFD1
:00000001FF
